{
  "contractName": "CourseMarketplace",
  "abi": [
    {
      "inputs": [],
      "stateMutability": "nonpayable",
      "type": "constructor"
    },
    {
      "inputs": [],
      "name": "CourseHasOwner",
      "type": "error"
    },
    {
      "inputs": [],
      "name": "CourseIsNotCreated",
      "type": "error"
    },
    {
      "inputs": [],
      "name": "InvalidState",
      "type": "error"
    },
    {
      "inputs": [],
      "name": "OnlyOwner",
      "type": "error"
    },
    {
      "inputs": [],
      "name": "SenderIsNotCourseOwner",
      "type": "error"
    },
    {
      "inputs": [],
      "name": "isStopped",
      "outputs": [
        {
          "internalType": "bool",
          "name": "",
          "type": "bool"
        }
      ],
      "stateMutability": "view",
      "type": "function",
      "constant": true
    },
    {
      "stateMutability": "payable",
      "type": "receive",
      "payable": true
    },
    {
      "inputs": [
        {
          "internalType": "uint256",
          "name": "amount",
          "type": "uint256"
        }
      ],
      "name": "withdraw",
      "outputs": [],
      "stateMutability": "nonpayable",
      "type": "function"
    },
    {
      "inputs": [],
      "name": "emergencyWithdraw",
      "outputs": [],
      "stateMutability": "nonpayable",
      "type": "function"
    },
    {
      "inputs": [],
      "name": "selfDestruct",
      "outputs": [],
      "stateMutability": "nonpayable",
      "type": "function"
    },
    {
      "inputs": [],
      "name": "stopContract",
      "outputs": [],
      "stateMutability": "nonpayable",
      "type": "function"
    },
    {
      "inputs": [],
      "name": "resumeContract",
      "outputs": [],
      "stateMutability": "nonpayable",
      "type": "function"
    },
    {
      "inputs": [
        {
          "internalType": "bytes16",
          "name": "courseId",
          "type": "bytes16"
        },
        {
          "internalType": "bytes32",
          "name": "proof",
          "type": "bytes32"
        }
      ],
      "name": "purchaseCourse",
      "outputs": [],
      "stateMutability": "payable",
      "type": "function",
      "payable": true
    },
    {
      "inputs": [
        {
          "internalType": "bytes32",
          "name": "courseHash",
          "type": "bytes32"
        }
      ],
      "name": "repurchaseCourse",
      "outputs": [],
      "stateMutability": "payable",
      "type": "function",
      "payable": true
    },
    {
      "inputs": [
        {
          "internalType": "bytes32",
          "name": "courseHash",
          "type": "bytes32"
        }
      ],
      "name": "activateCourse",
      "outputs": [],
      "stateMutability": "payable",
      "type": "function",
      "payable": true
    },
    {
      "inputs": [
        {
          "internalType": "bytes32",
          "name": "courseHash",
          "type": "bytes32"
        }
      ],
      "name": "deactivateCourse",
      "outputs": [],
      "stateMutability": "nonpayable",
      "type": "function"
    },
    {
      "inputs": [
        {
          "internalType": "address",
          "name": "newOwner",
          "type": "address"
        }
      ],
      "name": "transferOwnership",
      "outputs": [],
      "stateMutability": "nonpayable",
      "type": "function"
    },
    {
      "inputs": [],
      "name": "getCourseCount",
      "outputs": [
        {
          "internalType": "uint256",
          "name": "",
          "type": "uint256"
        }
      ],
      "stateMutability": "view",
      "type": "function",
      "constant": true
    },
    {
      "inputs": [
        {
          "internalType": "uint256",
          "name": "index",
          "type": "uint256"
        }
      ],
      "name": "getCourseHashAtIndex",
      "outputs": [
        {
          "internalType": "bytes32",
          "name": "",
          "type": "bytes32"
        }
      ],
      "stateMutability": "view",
      "type": "function",
      "constant": true
    },
    {
      "inputs": [
        {
          "internalType": "bytes32",
          "name": "courseHash",
          "type": "bytes32"
        }
      ],
      "name": "getCourseByHash",
      "outputs": [
        {
          "components": [
            {
              "internalType": "uint256",
              "name": "id",
              "type": "uint256"
            },
            {
              "internalType": "uint256",
              "name": "price",
              "type": "uint256"
            },
            {
              "internalType": "bytes32",
              "name": "proof",
              "type": "bytes32"
            },
            {
              "internalType": "address",
              "name": "owner",
              "type": "address"
            },
            {
              "internalType": "enum CourseMarketplace.State",
              "name": "state",
              "type": "uint8"
            }
          ],
          "internalType": "struct CourseMarketplace.Course",
          "name": "",
          "type": "tuple"
        }
      ],
      "stateMutability": "view",
      "type": "function",
      "constant": true
    },
    {
      "inputs": [],
      "name": "getContractOwner",
      "outputs": [
        {
          "internalType": "address",
          "name": "",
          "type": "address"
        }
      ],
      "stateMutability": "view",
      "type": "function",
      "constant": true
    }
  ],
  "bytecode": "0x608060405260008060006101000a81548160ff02191690831515021790555034801561002a57600080fd5b5061003a3361003f60201b60201c565b610083565b80600460006101000a81548173ffffffffffffffffffffffffffffffffffffffff021916908373ffffffffffffffffffffffffffffffffffffffff16021790555050565b611a2f806100926000396000f3fe6080604052600436106100ec5760003560e01c80636d11290b1161008a578063c4bc5da511610059578063c4bc5da5146102ab578063d76821cb146102c2578063db2e21bc146102de578063f2fde38b146102f5576100f3565b80636d11290b14610203578063935d7e6d1461024057806396cfda06146102695780639cb8a26a14610294576100f3565b80633f683b6a116100c65780633f683b6a14610154578063442890d51461017f5780636136e1eb146101aa57806362e4e6ac146101c6576100f3565b806312253a6c146100f85780632e1a7d4d1461010f5780633926257214610138576100f3565b366100f357005b600080fd5b34801561010457600080fd5b5061010d61031e565b005b34801561011b57600080fd5b5061013660048036038101906101319190611495565b6103a6565b005b610152600480360381019061014d919061146c565b6104e4565b005b34801561016057600080fd5b506101696106d0565b6040516101769190611691565b60405180910390f35b34801561018b57600080fd5b506101946106e1565b6040516101a19190611676565b60405180910390f35b6101c460048036038101906101bf919061146c565b61070b565b005b3480156101d257600080fd5b506101ed60048036038101906101e8919061146c565b6108d2565b6040516101fa9190611707565b60405180910390f35b34801561020f57600080fd5b5061022a60048036038101906102259190611495565b6109fa565b60405161023791906116ac565b60405180910390f35b34801561024c57600080fd5b506102676004803603810190610262919061146c565b610a17565b005b34801561027557600080fd5b5061027e610ce2565b60405161028b9190611722565b60405180910390f35b3480156102a057600080fd5b506102a9610cec565b005b3480156102b757600080fd5b506102c0610daa565b005b6102dc60048036038101906102d79190611430565b610e32565b005b3480156102ea57600080fd5b506102f3611046565b005b34801561030157600080fd5b5061031c60048036038101906103179190611407565b61119a565b005b6103266106e1565b73ffffffffffffffffffffffffffffffffffffffff163373ffffffffffffffffffffffffffffffffffffffff161461038a576040517f5fc483c500000000000000000000000000000000000000000000000000000000815260040160405180910390fd5b60016000806101000a81548160ff021916908315150217905550565b6103ae6106e1565b73ffffffffffffffffffffffffffffffffffffffff163373ffffffffffffffffffffffffffffffffffffffff1614610412576040517f5fc483c500000000000000000000000000000000000000000000000000000000815260040160405180910390fd5b6000600460009054906101000a900473ffffffffffffffffffffffffffffffffffffffff1673ffffffffffffffffffffffffffffffffffffffff168260405161045a90611661565b60006040518083038185875af1925050503d8060008114610497576040519150601f19603f3d011682016040523d82523d6000602084013e61049c565b606091505b50509050806104e0576040517f08c379a00000000000000000000000000000000000000000000000000000000081526004016104d7906116e7565b60405180910390fd5b5050565b6104ec6106e1565b73ffffffffffffffffffffffffffffffffffffffff163373ffffffffffffffffffffffffffffffffffffffff1614610550576040517f5fc483c500000000000000000000000000000000000000000000000000000000815260040160405180910390fd5b60008054906101000a900460ff161561056857600080fd5b61057181611212565b6105a7576040517f4db0c48300000000000000000000000000000000000000000000000000000000815260040160405180910390fd5b6000600160008381526020019081526020016000209050600060028111156105f8577f4e487b7100000000000000000000000000000000000000000000000000000000600052602160045260246000fd5b8160030160149054906101000a900460ff166002811115610642577f4e487b7100000000000000000000000000000000000000000000000000000000600052602160045260246000fd5b14610679576040517fbaf3f0f700000000000000000000000000000000000000000000000000000000815260040160405180910390fd5b60018160030160146101000a81548160ff021916908360028111156106c7577f4e487b7100000000000000000000000000000000000000000000000000000000600052602160045260246000fd5b02179055505050565b60008054906101000a900460ff1681565b6000600460009054906101000a900473ffffffffffffffffffffffffffffffffffffffff16905090565b60008054906101000a900460ff161561072357600080fd5b61072c81611212565b610762576040517f4db0c48300000000000000000000000000000000000000000000000000000000815260040160405180910390fd5b61076b81611281565b6107a1576040517fcce31cc400000000000000000000000000000000000000000000000000000000815260040160405180910390fd5b60006001600083815260200190815260200160002090506002808111156107f1577f4e487b7100000000000000000000000000000000000000000000000000000000600052602160045260246000fd5b8160030160149054906101000a900460ff16600281111561083b577f4e487b7100000000000000000000000000000000000000000000000000000000600052602160045260246000fd5b14610872576040517fbaf3f0f700000000000000000000000000000000000000000000000000000000815260040160405180910390fd5b60008160030160146101000a81548160ff021916908360028111156108c0577f4e487b7100000000000000000000000000000000000000000000000000000000600052602160045260246000fd5b02179055503481600101819055505050565b6108da611333565b600160008381526020019081526020016000206040518060a00160405290816000820154815260200160018201548152602001600282015481526020016003820160009054906101000a900473ffffffffffffffffffffffffffffffffffffffff1673ffffffffffffffffffffffffffffffffffffffff1673ffffffffffffffffffffffffffffffffffffffff1681526020016003820160149054906101000a900460ff1660028111156109b7577f4e487b7100000000000000000000000000000000000000000000000000000000600052602160045260246000fd5b60028111156109ef577f4e487b7100000000000000000000000000000000000000000000000000000000600052602160045260246000fd5b815250509050919050565b600060026000838152602001908152602001600020549050919050565b610a1f6106e1565b73ffffffffffffffffffffffffffffffffffffffff163373ffffffffffffffffffffffffffffffffffffffff1614610a83576040517f5fc483c500000000000000000000000000000000000000000000000000000000815260040160405180910390fd5b60008054906101000a900460ff1615610a9b57600080fd5b610aa481611212565b610ada576040517f4db0c48300000000000000000000000000000000000000000000000000000000815260040160405180910390fd5b600060016000838152602001908152602001600020905060006002811115610b2b577f4e487b7100000000000000000000000000000000000000000000000000000000600052602160045260246000fd5b8160030160149054906101000a900460ff166002811115610b75577f4e487b7100000000000000000000000000000000000000000000000000000000600052602160045260246000fd5b14610bac576040517fbaf3f0f700000000000000000000000000000000000000000000000000000000815260040160405180910390fd5b60008160030160009054906101000a900473ffffffffffffffffffffffffffffffffffffffff1673ffffffffffffffffffffffffffffffffffffffff168260010154604051610bfa90611661565b60006040518083038185875af1925050503d8060008114610c37576040519150601f19603f3d011682016040523d82523d6000602084013e610c3c565b606091505b5050905080610c80576040517f08c379a0000000000000000000000000000000000000000000000000000000008152600401610c77906116c7565b60405180910390fd5b60028260030160146101000a81548160ff02191690836002811115610cce577f4e487b7100000000000000000000000000000000000000000000000000000000600052602160045260246000fd5b021790555060008260010181905550505050565b6000600354905090565b60008054906101000a900460ff16610d0357600080fd5b610d0b6106e1565b73ffffffffffffffffffffffffffffffffffffffff163373ffffffffffffffffffffffffffffffffffffffff1614610d6f576040517f5fc483c500000000000000000000000000000000000000000000000000000000815260040160405180910390fd5b600460009054906101000a900473ffffffffffffffffffffffffffffffffffffffff1673ffffffffffffffffffffffffffffffffffffffff16ff5b610db26106e1565b73ffffffffffffffffffffffffffffffffffffffff163373ffffffffffffffffffffffffffffffffffffffff1614610e16576040517f5fc483c500000000000000000000000000000000000000000000000000000000815260040160405180910390fd5b60008060006101000a81548160ff021916908315150217905550565b60008054906101000a900460ff1615610e4a57600080fd5b60008233604051602001610e5f929190611635565b604051602081830303815290604052805190602001209050610e8081611281565b15610eb7576040517fb0fc2d9700000000000000000000000000000000000000000000000000000000815260040160405180910390fd5b600060036000815480929190610ecc90611852565b919050559050600181610edf9190611759565b90508160026000838152602001908152602001600020819055506040518060a001604052808281526020013481526020018481526020013373ffffffffffffffffffffffffffffffffffffffff16815260200160006002811115610f6c577f4e487b7100000000000000000000000000000000000000000000000000000000600052602160045260246000fd5b8152506001600084815260200190815260200160002060008201518160000155602082015181600101556040820151816002015560608201518160030160006101000a81548173ffffffffffffffffffffffffffffffffffffffff021916908373ffffffffffffffffffffffffffffffffffffffff16021790555060808201518160030160146101000a81548160ff02191690836002811115611038577f4e487b7100000000000000000000000000000000000000000000000000000000600052602160045260246000fd5b021790555090505050505050565b60008054906101000a900460ff1661105d57600080fd5b6110656106e1565b73ffffffffffffffffffffffffffffffffffffffff163373ffffffffffffffffffffffffffffffffffffffff16146110c9576040517f5fc483c500000000000000000000000000000000000000000000000000000000815260040160405180910390fd5b6000600460009054906101000a900473ffffffffffffffffffffffffffffffffffffffff1673ffffffffffffffffffffffffffffffffffffffff164760405161111190611661565b60006040518083038185875af1925050503d806000811461114e576040519150601f19603f3d011682016040523d82523d6000602084013e611153565b606091505b5050905080611197576040517f08c379a000000000000000000000000000000000000000000000000000000000815260040161118e906116e7565b60405180910390fd5b50565b6111a26106e1565b73ffffffffffffffffffffffffffffffffffffffff163373ffffffffffffffffffffffffffffffffffffffff1614611206576040517f5fc483c500000000000000000000000000000000000000000000000000000000815260040160405180910390fd5b61120f816112ef565b50565b60008073ffffffffffffffffffffffffffffffffffffffff166001600084815260200190815260200160002060030160009054906101000a900473ffffffffffffffffffffffffffffffffffffffff1673ffffffffffffffffffffffffffffffffffffffff1614159050919050565b60003373ffffffffffffffffffffffffffffffffffffffff166001600084815260200190815260200160002060030160009054906101000a900473ffffffffffffffffffffffffffffffffffffffff1673ffffffffffffffffffffffffffffffffffffffff16149050919050565b80600460006101000a81548173ffffffffffffffffffffffffffffffffffffffff021916908373ffffffffffffffffffffffffffffffffffffffff16021790555050565b6040518060a00160405280600081526020016000815260200160008019168152602001600073ffffffffffffffffffffffffffffffffffffffff168152602001600060028111156113ad577f4e487b7100000000000000000000000000000000000000000000000000000000600052602160045260246000fd5b81525090565b6000813590506113c28161199d565b92915050565b6000813590506113d7816119b4565b92915050565b6000813590506113ec816119cb565b92915050565b600081359050611401816119e2565b92915050565b60006020828403121561141957600080fd5b6000611427848285016113b3565b91505092915050565b6000806040838503121561144357600080fd5b6000611451858286016113c8565b9250506020611462858286016113dd565b9150509250929050565b60006020828403121561147e57600080fd5b600061148c848285016113dd565b91505092915050565b6000602082840312156114a757600080fd5b60006114b5848285016113f2565b91505092915050565b6114c7816117af565b82525050565b6114d6816117af565b82525050565b6114ed6114e8826117af565b61189b565b82525050565b6114fc816117c1565b82525050565b61151361150e826117cd565b6118ad565b82525050565b611522816117f9565b82525050565b611531816117f9565b82525050565b61154081611840565b82525050565b6000611553601083611748565b915061155e82611934565b602082019050919050565b600061157660008361173d565b91506115818261195d565b600082019050919050565b6000611599601083611748565b91506115a482611960565b602082019050919050565b60a0820160008201516115c56000850182611617565b5060208201516115d86020850182611617565b5060408201516115eb6040850182611519565b5060608201516115fe60608501826114be565b5060808201516116116080850182611537565b50505050565b61162081611836565b82525050565b61162f81611836565b82525050565b60006116418285611502565b60108201915061165182846114dc565b6014820191508190509392505050565b600061166c82611569565b9150819050919050565b600060208201905061168b60008301846114cd565b92915050565b60006020820190506116a660008301846114f3565b92915050565b60006020820190506116c16000830184611528565b92915050565b600060208201905081810360008301526116e081611546565b9050919050565b600060208201905081810360008301526117008161158c565b9050919050565b600060a08201905061171c60008301846115af565b92915050565b60006020820190506117376000830184611626565b92915050565b600081905092915050565b600082825260208201905092915050565b600061176482611836565b915061176f83611836565b9250827fffffffffffffffffffffffffffffffffffffffffffffffffffffffffffffffff038211156117a4576117a36118c9565b5b828201905092915050565b60006117ba82611816565b9050919050565b60008115159050919050565b60007fffffffffffffffffffffffffffffffff0000000000000000000000000000000082169050919050565b6000819050919050565b600081905061181182611989565b919050565b600073ffffffffffffffffffffffffffffffffffffffff82169050919050565b6000819050919050565b600061184b82611803565b9050919050565b600061185d82611836565b91507fffffffffffffffffffffffffffffffffffffffffffffffffffffffffffffffff8214156118905761188f6118c9565b5b600182019050919050565b60006118a6826118b7565b9050919050565b6000819050919050565b60006118c282611927565b9050919050565b7f4e487b7100000000000000000000000000000000000000000000000000000000600052601160045260246000fd5b7f4e487b7100000000000000000000000000000000000000000000000000000000600052602160045260246000fd5b60008160601b9050919050565b7f5472616e73666572206661696c65642100000000000000000000000000000000600082015250565b50565b7f5472616e73666572206661696c65642e00000000000000000000000000000000600082015250565b6003811061199a576119996118f8565b5b50565b6119a6816117af565b81146119b157600080fd5b50565b6119bd816117cd565b81146119c857600080fd5b50565b6119d4816117f9565b81146119df57600080fd5b50565b6119eb81611836565b81146119f657600080fd5b5056fea2646970667358221220f91da06a0df52f12420c255b408f93e268344cbb5bccedbae2425c9ab63c01ab64736f6c63430008040033",
  "immutableReferences": {},
  "source": "\n// SPDX-License-Identifier: MIT\npragma solidity >=0.4.22 <0.9.0;\n\ncontract CourseMarketplace {\n\n  enum State {\n    Purchased,\n    Activated,\n    Deactivated\n  }\n\n  struct Course {\n    uint id; // 32\n    uint price; // 32\n    bytes32 proof; // 32\n    address owner; // 20\n    State state; // 1\n  }\n\n  bool public isStopped = false;\n\n  // mapping of courseHash to Course data\n  mapping(bytes32 => Course) private ownedCourses;\n\n  // mapping of courseID to courseHash\n  mapping(uint => bytes32) private ownedCourseHash;\n\n  // number of all courses + id of the course\n  uint private totalOwnedCourses;\n\n  address payable private owner;\n\n  constructor() {\n    setContractOwner(msg.sender);\n  }\n\n  /// Course has invalid state!\n  error InvalidState();\n\n  /// Course is not created!\n  error CourseIsNotCreated();\n\n  /// Course has already a Owner!\n  error CourseHasOwner();\n\n  /// Sender is not course owner!\n  error SenderIsNotCourseOwner();\n\n  /// Only owner has an access!\n  error OnlyOwner();\n\n  modifier onlyOwner() {\n    if (msg.sender != getContractOwner()) {\n      revert OnlyOwner();\n    }\n    _;\n  }\n\n  modifier onlyWhenNotStopped{\n    require(!isStopped);\n    _;\n  }\n\n  modifier onlyWhenStopped{\n    require(isStopped);\n    _;\n  }\n\n  receive() external payable{}\n\n  function withdraw(uint amount)\n    external\n    onlyOwner\n  {\n    (bool success, ) = owner.call{value: amount}(\"\");\n    require(success, \"Transfer failed.\");\n  }\n\n  function emergencyWithdraw()\n    external\n    onlyWhenStopped\n    onlyOwner\n  {\n    (bool success, ) = owner.call{value: address(this).balance}(\"\");\n    require(success, \"Transfer failed.\");\n  }\n  \n  function selfDestruct()external onlyWhenStopped onlyOwner{\n    selfdestruct(owner);\n  }\n\n\n  function stopContract()external onlyOwner{\n    isStopped =  true;\n  }\n\n  function resumeContract()external onlyOwner{\n    isStopped =  false;\n  }\n\n\n  function purchaseCourse(\n    bytes16 courseId, // 0x00000000000000000000000000003130\n    bytes32 proof // 0x0000000000000000000000000000313000000000000000000000000000003130\n  )\n    external\n    payable\n    onlyWhenNotStopped\n  {\n    bytes32 courseHash = keccak256(abi.encodePacked(courseId, msg.sender));\n\n    if (hasCourseOwnership(courseHash)) {\n      revert CourseHasOwner();\n    }\n\n    uint id = totalOwnedCourses++;\n    id = id+1;\n\n    ownedCourseHash[id] = courseHash;\n    ownedCourses[courseHash] = Course({\n      id: id,\n      price: msg.value,\n      proof: proof,\n      owner: msg.sender,\n      state: State.Purchased\n    });\n  }\n\n  function repurchaseCourse(bytes32 courseHash)\n    external\n    payable\n    onlyWhenNotStopped\n  {\n    if (!isCourseCreated(courseHash)) {\n      revert CourseIsNotCreated();\n    }\n\n    if (!hasCourseOwnership(courseHash)) {\n      revert SenderIsNotCourseOwner();\n    }\n\n    Course storage course = ownedCourses[courseHash];\n\n    if (course.state != State.Deactivated) {\n      revert InvalidState();\n    }\n\n    course.state = State.Purchased;\n    course.price = msg.value;\n  }\n\n\n  function activateCourse(bytes32 courseHash)\n    external\n    payable\n    onlyOwner\n    onlyWhenNotStopped\n  {\n    if (!isCourseCreated(courseHash)) {\n      revert CourseIsNotCreated();\n    }\n\n    Course storage course = ownedCourses[courseHash];\n\n    if (course.state != State.Purchased) {\n      revert InvalidState();\n    }\n\n    course.state = State.Activated;\n  }\n\n  function deactivateCourse(bytes32 courseHash)\n    external\n    onlyOwner\n    onlyWhenNotStopped\n  {\n    if (!isCourseCreated(courseHash)) {\n      revert CourseIsNotCreated();\n    }\n\n    Course storage course = ownedCourses[courseHash];\n\n    if (course.state != State.Purchased) {\n      revert InvalidState();\n    }\n\n    (bool success, ) = course.owner.call{value: course.price}(\"\");\n    require(success, \"Transfer failed!\");\n\n    course.state = State.Deactivated;\n    course.price = 0;\n  }\n\n\n  function transferOwnership(address newOwner)\n    external\n    onlyOwner\n  {\n    setContractOwner(newOwner);\n  }\n\n  function getCourseCount()\n    external\n    view\n    returns (uint)\n  {\n    return totalOwnedCourses;\n  }\n\n  function getCourseHashAtIndex(uint index)\n    external\n    view\n    returns (bytes32)\n  {\n    return ownedCourseHash[index];\n  }\n\n  function getCourseByHash(bytes32 courseHash)\n    external\n    view\n    returns (Course memory)\n  {\n    return ownedCourses[courseHash];\n  }\n\n  function getContractOwner()\n    public\n    view\n    returns (address)\n  {\n    return owner;\n  }\n\n  function setContractOwner(address newOwner) private {\n    owner = payable(newOwner);\n  }\n\n  function isCourseCreated(bytes32 courseHash)\n    private\n    view\n    returns (bool)\n  {\n    return ownedCourses[courseHash].owner != 0x0000000000000000000000000000000000000000;\n  }\n\n  function hasCourseOwnership(bytes32 courseHash)\n    private\n    view\n    returns (bool)\n  {\n    return ownedCourses[courseHash].owner == msg.sender;\n  }\n}",
  "sourcePath": "/home/pianist/blockChain/marketplace-eth/contracts/CourseMarketplace.sol",
  "compiler": {
    "name": "solc",
    "version": "0.8.4+commit.c7e474f2.Emscripten.clang"
  },
  "schemaVersion": "3.4.7",
  "updatedAt": "2022-10-09T09:17:17.747Z",
  "networkType": "ethereum",
  "devdoc": {
    "kind": "dev",
    "methods": {},
    "version": 1
  },
  "userdoc": {
    "errors": {
      "CourseHasOwner()": [
        {
          "notice": "Course has already a Owner!"
        }
      ],
      "CourseIsNotCreated()": [
        {
          "notice": "Course is not created!"
        }
      ],
      "InvalidState()": [
        {
          "notice": "Course has invalid state!"
        }
      ],
      "OnlyOwner()": [
        {
          "notice": "Only owner has an access!"
        }
      ],
      "SenderIsNotCourseOwner()": [
        {
          "notice": "Sender is not course owner!"
        }
      ]
    },
    "kind": "user",
    "methods": {},
    "version": 1
  }
}